{
  "_format": "hh-sol-artifact-1",
  "contractName": "BlockLock",
  "sourceName": "contracts/CellarPoolShare.sol",
  "abi": [
    {
      "inputs": [
        {
          "internalType": "address",
          "name": "",
          "type": "address"
        }
      ],
      "name": "lastLockedBlock",
      "outputs": [
        {
          "internalType": "uint256",
          "name": "",
          "type": "uint256"
        }
      ],
      "stateMutability": "view",
      "type": "function"
    }
  ],
  "bytecode": "0x608060405234801561001057600080fd5b5060cd8061001f6000396000f3fe6080604052348015600f57600080fd5b506004361060285760003560e01c80639f3e8b3414602d575b600080fd5b603c60383660046062565b6050565b60405160479190608e565b60405180910390f35b60006020819052908152604090205481565b6000602082840312156072578081fd5b81356001600160a01b03811681146087578182fd5b9392505050565b9081526020019056fea2646970667358221220de52df3833b08fee05f92292987565724b21deec30670295f2da15820e925f1f64736f6c63430007060033",
  "linkReferences": {},
  "deployedLinkReferences": {}
}