{
  "_format": "hh-sol-artifact-1",
  "contractName": "Gravity",
  "sourceName": "contracts/Gravity.sol",
  "abi": [
    {
      "inputs": [
        {
          "internalType": "bytes32",
          "name": "_gravityId",
          "type": "bytes32"
        },
        {
          "internalType": "uint256",
          "name": "_powerThreshold",
          "type": "uint256"
        },
        {
          "internalType": "address[]",
          "name": "_validators",
          "type": "address[]"
        },
        {
          "internalType": "uint256[]",
          "name": "_powers",
          "type": "uint256[]"
        }
      ],
      "stateMutability": "nonpayable",
      "type": "constructor"
    },
    {
      "anonymous": false,
      "inputs": [
        {
          "indexed": false,
          "internalType": "string",
          "name": "_cosmosDenom",
          "type": "string"
        },
        {
          "indexed": true,
          "internalType": "address",
          "name": "_tokenContract",
          "type": "address"
        },
        {
          "indexed": false,
          "internalType": "string",
          "name": "_name",
          "type": "string"
        },
        {
          "indexed": false,
          "internalType": "string",
          "name": "_symbol",
          "type": "string"
        },
        {
          "indexed": false,
          "internalType": "uint8",
          "name": "_decimals",
          "type": "uint8"
        },
        {
          "indexed": false,
          "internalType": "uint256",
          "name": "_eventNonce",
          "type": "uint256"
        }
      ],
      "name": "ERC20DeployedEvent",
      "type": "event"
    },
    {
      "anonymous": false,
      "inputs": [
        {
          "indexed": false,
          "internalType": "bytes32",
          "name": "_invalidationId",
          "type": "bytes32"
        },
        {
          "indexed": false,
          "internalType": "uint256",
          "name": "_invalidationNonce",
          "type": "uint256"
        },
        {
          "indexed": false,
          "internalType": "bytes",
          "name": "_returnData",
          "type": "bytes"
        },
        {
          "indexed": false,
          "internalType": "uint256",
          "name": "_eventNonce",
          "type": "uint256"
        }
      ],
      "name": "LogicCallEvent",
      "type": "event"
    },
    {
      "anonymous": false,
      "inputs": [
        {
          "indexed": true,
          "internalType": "address",
          "name": "_tokenContract",
          "type": "address"
        },
        {
          "indexed": true,
          "internalType": "address",
          "name": "_sender",
          "type": "address"
        },
        {
          "indexed": true,
          "internalType": "bytes32",
          "name": "_destination",
          "type": "bytes32"
        },
        {
          "indexed": false,
          "internalType": "uint256",
          "name": "_amount",
          "type": "uint256"
        },
        {
          "indexed": false,
          "internalType": "uint256",
          "name": "_eventNonce",
          "type": "uint256"
        }
      ],
      "name": "SendToCosmosEvent",
      "type": "event"
    },
    {
      "anonymous": false,
      "inputs": [
        {
          "indexed": true,
          "internalType": "uint256",
          "name": "_batchNonce",
          "type": "uint256"
        },
        {
          "indexed": true,
          "internalType": "address",
          "name": "_token",
          "type": "address"
        },
        {
          "indexed": false,
          "internalType": "uint256",
          "name": "_eventNonce",
          "type": "uint256"
        }
      ],
      "name": "TransactionBatchExecutedEvent",
      "type": "event"
    },
    {
      "anonymous": false,
      "inputs": [
        {
          "indexed": true,
          "internalType": "uint256",
          "name": "_newValsetNonce",
          "type": "uint256"
        },
        {
          "indexed": false,
          "internalType": "uint256",
          "name": "_eventNonce",
          "type": "uint256"
        },
        {
          "indexed": false,
          "internalType": "address[]",
          "name": "_validators",
          "type": "address[]"
        },
        {
          "indexed": false,
          "internalType": "uint256[]",
          "name": "_powers",
          "type": "uint256[]"
        }
      ],
      "name": "ValsetUpdatedEvent",
      "type": "event"
    },
    {
      "inputs": [
        {
          "internalType": "string",
          "name": "_cosmosDenom",
          "type": "string"
        },
        {
          "internalType": "string",
          "name": "_name",
          "type": "string"
        },
        {
          "internalType": "string",
          "name": "_symbol",
          "type": "string"
        },
        {
          "internalType": "uint8",
          "name": "_decimals",
          "type": "uint8"
        }
      ],
      "name": "deployERC20",
      "outputs": [],
      "stateMutability": "nonpayable",
      "type": "function"
    },
    {
      "inputs": [
        {
          "internalType": "address",
          "name": "_erc20Address",
          "type": "address"
        }
      ],
      "name": "lastBatchNonce",
      "outputs": [
        {
          "internalType": "uint256",
          "name": "",
          "type": "uint256"
        }
      ],
      "stateMutability": "view",
      "type": "function"
    },
    {
      "inputs": [
        {
          "internalType": "bytes32",
          "name": "_invalidation_id",
          "type": "bytes32"
        }
      ],
      "name": "lastLogicCallNonce",
      "outputs": [
        {
          "internalType": "uint256",
          "name": "",
          "type": "uint256"
        }
      ],
      "stateMutability": "view",
      "type": "function"
    },
    {
      "inputs": [
        {
          "internalType": "address",
          "name": "_tokenContract",
          "type": "address"
        },
        {
          "internalType": "bytes32",
          "name": "_destination",
          "type": "bytes32"
        },
        {
          "internalType": "uint256",
          "name": "_amount",
          "type": "uint256"
        }
      ],
      "name": "sendToCosmos",
      "outputs": [],
      "stateMutability": "nonpayable",
      "type": "function"
    },
    {
      "inputs": [],
      "name": "state_gravityId",
      "outputs": [
        {
          "internalType": "bytes32",
          "name": "",
          "type": "bytes32"
        }
      ],
      "stateMutability": "view",
      "type": "function"
    },
    {
      "inputs": [
        {
          "internalType": "bytes32",
          "name": "",
          "type": "bytes32"
        }
      ],
      "name": "state_invalidationMapping",
      "outputs": [
        {
          "internalType": "uint256",
          "name": "",
          "type": "uint256"
        }
      ],
      "stateMutability": "view",
      "type": "function"
    },
    {
      "inputs": [
        {
          "internalType": "address",
          "name": "",
          "type": "address"
        }
      ],
      "name": "state_lastBatchNonces",
      "outputs": [
        {
          "internalType": "uint256",
          "name": "",
          "type": "uint256"
        }
      ],
      "stateMutability": "view",
      "type": "function"
    },
    {
      "inputs": [],
      "name": "state_lastEventNonce",
      "outputs": [
        {
          "internalType": "uint256",
          "name": "",
          "type": "uint256"
        }
      ],
      "stateMutability": "view",
      "type": "function"
    },
    {
      "inputs": [],
      "name": "state_lastValsetCheckpoint",
      "outputs": [
        {
          "internalType": "bytes32",
          "name": "",
          "type": "bytes32"
        }
      ],
      "stateMutability": "view",
      "type": "function"
    },
    {
      "inputs": [],
      "name": "state_lastValsetNonce",
      "outputs": [
        {
          "internalType": "uint256",
          "name": "",
          "type": "uint256"
        }
      ],
      "stateMutability": "view",
      "type": "function"
    },
    {
      "inputs": [],
      "name": "state_powerThreshold",
      "outputs": [
        {
          "internalType": "uint256",
          "name": "",
          "type": "uint256"
        }
      ],
      "stateMutability": "view",
      "type": "function"
    },
    {
      "inputs": [
        {
          "internalType": "address[]",
          "name": "_currentValidators",
          "type": "address[]"
        },
        {
          "internalType": "uint256[]",
          "name": "_currentPowers",
          "type": "uint256[]"
        },
        {
          "internalType": "uint256",
          "name": "_currentValsetNonce",
          "type": "uint256"
        },
        {
          "internalType": "uint8[]",
          "name": "_v",
          "type": "uint8[]"
        },
        {
          "internalType": "bytes32[]",
          "name": "_r",
          "type": "bytes32[]"
        },
        {
          "internalType": "bytes32[]",
          "name": "_s",
          "type": "bytes32[]"
        },
        {
          "internalType": "uint256[]",
          "name": "_amounts",
          "type": "uint256[]"
        },
        {
          "internalType": "address[]",
          "name": "_destinations",
          "type": "address[]"
        },
        {
          "internalType": "uint256[]",
          "name": "_fees",
          "type": "uint256[]"
        },
        {
          "internalType": "uint256",
          "name": "_batchNonce",
          "type": "uint256"
        },
        {
          "internalType": "address",
          "name": "_tokenContract",
          "type": "address"
        },
        {
          "internalType": "uint256",
          "name": "_batchTimeout",
          "type": "uint256"
        }
      ],
      "name": "submitBatch",
      "outputs": [],
      "stateMutability": "nonpayable",
      "type": "function"
    },
    {
      "inputs": [
        {
          "internalType": "address[]",
          "name": "_currentValidators",
          "type": "address[]"
        },
        {
          "internalType": "uint256[]",
          "name": "_currentPowers",
          "type": "uint256[]"
        },
        {
          "internalType": "uint256",
          "name": "_currentValsetNonce",
          "type": "uint256"
        },
        {
          "internalType": "uint8[]",
          "name": "_v",
          "type": "uint8[]"
        },
        {
          "internalType": "bytes32[]",
          "name": "_r",
          "type": "bytes32[]"
        },
        {
          "internalType": "bytes32[]",
          "name": "_s",
          "type": "bytes32[]"
        },
        {
          "components": [
            {
              "internalType": "uint256[]",
              "name": "transferAmounts",
              "type": "uint256[]"
            },
            {
              "internalType": "address[]",
              "name": "transferTokenContracts",
              "type": "address[]"
            },
            {
              "internalType": "uint256[]",
              "name": "feeAmounts",
              "type": "uint256[]"
            },
            {
              "internalType": "address[]",
              "name": "feeTokenContracts",
              "type": "address[]"
            },
            {
              "internalType": "address",
              "name": "logicContractAddress",
              "type": "address"
            },
            {
              "internalType": "bytes",
              "name": "payload",
              "type": "bytes"
            },
            {
              "internalType": "uint256",
              "name": "timeOut",
              "type": "uint256"
            },
            {
              "internalType": "bytes32",
              "name": "invalidationId",
              "type": "bytes32"
            },
            {
              "internalType": "uint256",
              "name": "invalidationNonce",
              "type": "uint256"
            }
          ],
          "internalType": "struct LogicCallArgs",
          "name": "_args",
          "type": "tuple"
        }
      ],
      "name": "submitLogicCall",
      "outputs": [],
      "stateMutability": "nonpayable",
      "type": "function"
    },
    {
      "inputs": [
        {
          "internalType": "address[]",
          "name": "_currentValidators",
          "type": "address[]"
        },
        {
          "internalType": "uint256[]",
          "name": "_currentPowers",
          "type": "uint256[]"
        },
        {
          "internalType": "uint8[]",
          "name": "_v",
          "type": "uint8[]"
        },
        {
          "internalType": "bytes32[]",
          "name": "_r",
          "type": "bytes32[]"
        },
        {
          "internalType": "bytes32[]",
          "name": "_s",
          "type": "bytes32[]"
        },
        {
          "internalType": "bytes32",
          "name": "_theHash",
          "type": "bytes32"
        },
        {
          "internalType": "uint256",
          "name": "_powerThreshold",
          "type": "uint256"
        }
      ],
      "name": "testCheckValidatorSignatures",
      "outputs": [],
      "stateMutability": "pure",
      "type": "function"
    },
    {
      "inputs": [
        {
          "internalType": "address[]",
          "name": "_validators",
          "type": "address[]"
        },
        {
          "internalType": "uint256[]",
          "name": "_powers",
          "type": "uint256[]"
        },
        {
          "internalType": "uint256",
          "name": "_valsetNonce",
          "type": "uint256"
        },
        {
          "internalType": "bytes32",
          "name": "_gravityId",
          "type": "bytes32"
        }
      ],
      "name": "testMakeCheckpoint",
      "outputs": [],
      "stateMutability": "pure",
      "type": "function"
    },
    {
      "inputs": [
        {
          "internalType": "address[]",
          "name": "_newValidators",
          "type": "address[]"
        },
        {
          "internalType": "uint256[]",
          "name": "_newPowers",
          "type": "uint256[]"
        },
        {
          "internalType": "uint256",
          "name": "_newValsetNonce",
          "type": "uint256"
        },
        {
          "internalType": "address[]",
          "name": "_currentValidators",
          "type": "address[]"
        },
        {
          "internalType": "uint256[]",
          "name": "_currentPowers",
          "type": "uint256[]"
        },
        {
          "internalType": "uint256",
          "name": "_currentValsetNonce",
          "type": "uint256"
        },
        {
          "internalType": "uint8[]",
          "name": "_v",
          "type": "uint8[]"
        },
        {
          "internalType": "bytes32[]",
          "name": "_r",
          "type": "bytes32[]"
        },
        {
          "internalType": "bytes32[]",
          "name": "_s",
          "type": "bytes32[]"
        }
      ],
      "name": "updateValset",
      "outputs": [],
      "stateMutability": "nonpayable",
      "type": "function"
    }
  ],
  "bytecode": "0x6080604052600060045560016005553480156200001b57600080fd5b5060405162003722380380620037228339810160408190526200003e9162000233565b60016000558051825114620000705760405162461bcd60e51b8152600401620000679062000431565b60405180910390fd5b6000805b8251811015620000af578281815181106200008b57fe5b60200260200101518201915084821115620000a657620000af565b60010162000074565b50838111620000d25760405162461bcd60e51b81526004016200006790620003d4565b6000620000eb848483896001600160e01b036200014d16565b60068790556007869055600181905560045460055460405192935090917fb119f1f36224601586b5037da909ecf37e83864dddea5d32ad4e32ac1d97e62b9162000139918890889062000468565b60405180910390a2505050505050620004e8565b6040516000906918da1958dadc1bda5b9d60b21b9082906200017c908590849088908b908b906020016200038d565b60408051808303601f190181529190528051602090910120979650505050505050565b80516001600160a01b0381168114620001b757600080fd5b92915050565b600082601f830112620001ce578081fd5b8151620001e5620001df82620004c8565b620004a1565b8181529150602080830190848101818402860182018710156200020757600080fd5b60005b8481101562000228578151845292820192908201906001016200020a565b505050505092915050565b6000806000806080858703121562000249578384fd5b845160208087015160408801519296509450906001600160401b038082111562000271578485fd5b81880189601f82011262000283578586fd5b8051925062000296620001df84620004c8565b83815284810190828601868602840187018d1015620002b3578889fd5b8893505b85841015620002e157620002cc8d826200019f565b835260019390930192918601918601620002b7565b5060608b01519097509450505080831115620002fb578384fd5b50506200030b87828801620001bd565b91505092959194509250565b6000815180845260208085019450808401835b83811015620003515781516001600160a01b0316875295820195908201906001016200032a565b509495945050505050565b6000815180845260208085019450808401835b8381101562000351578151875295820195908201906001016200036f565b600086825285602083015284604083015260a06060830152620003b460a083018562000317565b8281036080840152620003c881856200035c565b98975050505050505050565b6020808252603c908201527f5375626d69747465642076616c696461746f7220736574207369676e6174757260408201527f657320646f206e6f74206861766520656e6f75676820706f7765722e00000000606082015260800190565b6020808252601f908201527f4d616c666f726d65642063757272656e742076616c696461746f722073657400604082015260600190565b60008482526060602083015262000483606083018562000317565b82810360408401526200049781856200035c565b9695505050505050565b6040518181016001600160401b0381118282101715620004c057600080fd5b604052919050565b60006001600160401b03821115620004de578081fd5b5060209081020190565b61322a80620004f86000396000f3fe60806040523480156200001157600080fd5b5060043610620001185760003560e01c8063c227c30b11620000a5578063e3cb9f62116200006f578063e3cb9f621462000224578063e5a2b5d2146200023b578063f2b533071462000245578063f7955637146200024f5762000118565b8063c227c30b14620001c8578063c9d194d514620001df578063db7c4e5714620001f6578063df97174b146200020d5762000118565b80637dfb6f8611620000e75780637dfb6f86146200018657806383b435db146200019d578063b56561fe14620001b4578063bdda81d414620001be5762000118565b8063011b2174146200011d5780630c246c82146200014c5780631ffbe7f9146200016557806373b20547146200017c575b600080fd5b620001346200012e366004620013da565b62000266565b60405162000143919062001bf8565b60405180910390f35b620001636200015d3660046200181b565b62000281565b005b6200016362000176366004620013f8565b620005ce565b6200013462000684565b6200013462000197366004620019bf565b6200068a565b62000163620001ae36600462001663565b6200069c565b6200013462000968565b620001346200096e565b62000163620001d936600462001926565b62000974565b62000134620001f0366004620019bf565b62000989565b620001636200020736600462001439565b6200099b565b620001346200021e366004620013da565b620009b5565b620001636200023536600462001527565b620009c7565b6200013462000b53565b6200013462000b59565b6200016362000260366004620019d8565b62000b5f565b6001600160a01b031660009081526002602052604090205490565b60026000541415620002b05760405162461bcd60e51b8152600401620002a79062002284565b60405180910390fd5b600260005560c08101514310620002db5760405162461bcd60e51b8152600401620002a79062001fd7565b61010081015160e082015160009081526003602052604090205410620003155760405162461bcd60e51b8152600401620002a79062001f43565b8551875114801562000328575083518751145b801562000336575082518751145b801562000344575081518751145b620003635760405162461bcd60e51b8152600401620002a7906200224d565b6001546200037688888860065462000c11565b14620003965760405162461bcd60e51b8152600401620002a79062001e59565b60208101515181515114620003bf5760405162461bcd60e51b8152600401620002a7906200209a565b80606001515181604001515114620003eb5760405162461bcd60e51b8152600401620002a79062001e29565b6000600654681b1bd9da58d0d85b1b60ba1b836000015184602001518560400151866060015187608001518860a001518960c001518a60e001518b6101000151604051602001620004479b9a9998979695949392919062001c48565b6040516020818303038152906040528051906020012090506200047288888787878660075462000c65565b61010082015160e08301516000908152600360205260408120919091555b825151811015620004f857620004ef836080015184600001518381518110620004b557fe5b602002602001015185602001518481518110620004ce57fe5b60200260200101516001600160a01b031662000d6f9092919063ffffffff16565b60010162000490565b5060606200050f83608001518460a0015162000dce565b905060005b8360400151518110156200055a576200055133856040015183815181106200053857fe5b602002602001015186606001518481518110620004ce57fe5b60010162000514565b506005546200057190600163ffffffff62000e1b16565b600581905560e08401516101008501516040517f7c2bb24f8e1b3725cb613d7f11ef97d9745cc97a0e40f730621c052d684077a193620005b693929186919062001d6e565b60405180910390a15050600160005550505050505050565b60026000541415620005f45760405162461bcd60e51b8152600401620002a79062002284565b6002600055620006166001600160a01b03841633308463ffffffff62000e4316565b6005546200062c90600163ffffffff62000e1b16565b6005819055604051839133916001600160a01b038716917fd7767894d73c589daeca9643f445f03d7be61aad2950c117e7cbff4176fca7e49162000672918791620022f4565b60405180910390a45050600160005550565b60055481565b60036020526000908152604090205481565b60026000541415620006c25760405162461bcd60e51b8152600401620002a79062002284565b600260008181556001600160a01b038416815260209190915260409020548311620007015760405162461bcd60e51b8152600401620002a79062001eb6565b804310620007235760405162461bcd60e51b8152600401620002a7906200203d565b8a518c5114801562000736575088518c51145b801562000744575087518c51145b801562000752575086518c51145b620007715760405162461bcd60e51b8152600401620002a7906200224d565b600154620007848d8d8d60065462000c11565b14620007a45760405162461bcd60e51b8152600401620002a79062001e59565b84518651148015620007b7575083518651145b620007d65760405162461bcd60e51b8152600401620002a79062001f0c565b620008348c8c8b8b8b6006546f0e8e4c2dce6c2c6e8d2dedc84c2e8c6d60831b8d8d8d8d8d8d6040516020016200081598979695949392919062001cf7565b6040516020818303038152906040528051906020012060075462000c65565b6001600160a01b0382166000908152600260205260408120849055805b8751811015620008d757620008a38782815181106200086c57fe5b60200260200101518983815181106200088157fe5b6020026020010151866001600160a01b031662000d6f9092919063ffffffff16565b620008cc868281518110620008b457fe5b60200260200101518362000e1b90919063ffffffff16565b915060010162000851565b50620008f46001600160a01b038416338363ffffffff62000d6f16565b506005546200090b90600163ffffffff62000e1b16565b60058190556040516001600160a01b0384169185917f02c7e81975f8edb86e2a0c038b7b86a49c744236abf0f6177ff5afc6986ab708916200094d9162001bf8565b60405180910390a35050600160005550505050505050505050565b60045481565b60065481565b620009828484848462000c11565b5050505050565b60009081526003602052604090205490565b620009ac8787878787878762000c65565b50505050505050565b60026020526000908152604090205481565b60026000541415620009ed5760405162461bcd60e51b8152600401620002a79062002284565b600260005583871162000a145760405162461bcd60e51b8152600401620002a7906200216f565b875189511462000a385760405162461bcd60e51b8152600401620002a790620020db565b8451865114801562000a4b575082518651145b801562000a59575081518651145b801562000a67575080518651145b62000a865760405162461bcd60e51b8152600401620002a7906200224d565b60015462000a9987878760065462000c11565b1462000ab95760405162461bcd60e51b8152600401620002a79062001e59565b600062000acb8a8a8a60065462000c11565b905062000ae087878686868660075462000c65565b6001818155600489905560055462000afe9163ffffffff62000e1b16565b600581905560405189917fb119f1f36224601586b5037da909ecf37e83864dddea5d32ad4e32ac1d97e62b9162000b3a91908e908e90620022bb565b60405180910390a2505060016000555050505050505050565b60075481565b60015481565b60003084848460405162000b7390620010bb565b62000b82949392919062001b90565b604051809103906000f08015801562000b9f573d6000803e3d6000fd5b5060055490915062000bb990600163ffffffff62000e1b16565b60058190556040516001600160a01b038316917f82fe3a4fa49c6382d0c085746698ddbbafe6c2bf61285b19410644b5b26287c79162000c029189918991899189919062001dd3565b60405180910390a25050505050565b6040516000906918da1958dadc1bda5b9d60b21b90829062000c40908590849088908b908b9060200162001c01565b60408051601f198184030181529190528051602090910120925050505b949350505050565b6000805b885181101562000d425786818151811062000c8057fe5b602002602001015160ff1660001462000d395762000cf289828151811062000ca457fe5b60200260200101518589848151811062000cba57fe5b602002602001015189858151811062000ccf57fe5b602002602001015189868151811062000ce457fe5b602002602001015162000e6d565b62000d115760405162461bcd60e51b8152600401620002a79062001ffa565b87818151811062000d1e57fe5b6020026020010151820191508282111562000d395762000d42565b60010162000c69565b5081811162000d655760405162461bcd60e51b8152600401620002a79062002112565b5050505050505050565b62000dc98363a9059cbb60e01b848460405160240162000d9192919062001bdf565b60408051601f198184030181529190526020810180516001600160e01b03166001600160e01b03199093169290921790915262000f0d565b505050565b606062000e1283836040518060400160405280601e81526020017f416464726573733a206c6f772d6c6576656c2063616c6c206661696c6564000081525062000fa4565b90505b92915050565b60008282018381101562000e125760405162461bcd60e51b8152600401620002a79062001fa0565b62000e67846323b872dd60e01b85858560405160240162000d919392919062001b6c565b50505050565b6000808560405160200162000e83919062001b3b565b6040516020818303038152906040528051906020012090506001818686866040516000815260200160405260405162000ec0949392919062001da0565b6020604051602081039080840390855afa15801562000ee3573d6000803e3d6000fd5b505050602060405103516001600160a01b0316876001600160a01b03161491505095945050505050565b606062000f64826040518060400160405280602081526020017f5361666545524332303a206c6f772d6c6576656c2063616c6c206661696c6564815250856001600160a01b031662000fa49092919063ffffffff16565b80519091501562000dc9578080602001905181019062000f8591906200199d565b62000dc95760405162461bcd60e51b8152600401620002a79062002203565b606062000c5d8484600085606062000fbc8562001081565b62000fdb5760405162461bcd60e51b8152600401620002a790620021cc565b60006060866001600160a01b0316858760405162000ffa919062001b1d565b60006040518083038185875af1925050503d806000811462001039576040519150601f19603f3d011682016040523d82523d6000602084013e6200103e565b606091505b509150915081156200105457915062000c5d9050565b805115620010655780518082602001fd5b8360405162461bcd60e51b8152600401620002a7919062001dbe565b6000813f7fc5d2460186f7233c927e7db2dcc703c0e500b653ca82273b7bfad8045d85a47081811480159062000c5d575050151592915050565b610e7c806200237983390190565b80356001600160a01b038116811462000e1557600080fd5b600082601f830112620010f2578081fd5b813562001109620011038262002329565b62002302565b8181529150602080830190848101818402860182018710156200112b57600080fd5b60005b848110156200115657620011438883620010c9565b845292820192908201906001016200112e565b505050505092915050565b600082601f83011262001172578081fd5b813562001183620011038262002329565b818152915060208083019084810181840286018201871015620011a557600080fd5b60005b848110156200115657813584529282019290820190600101620011a8565b600082601f830112620011d7578081fd5b8135620011e8620011038262002329565b8181529150602080830190848101818402860182018710156200120a57600080fd5b60005b848110156200115657620012228883620013c8565b845292820192908201906001016200120d565b600082601f83011262001246578081fd5b81356001600160401b038111156200125c578182fd5b62001271601f8201601f191660200162002302565b91508082528360208285010111156200128957600080fd5b8060208401602084013760009082016020015292915050565b6000610120808385031215620012b6578182fd5b620012c18162002302565b91505081356001600160401b0380821115620012dc57600080fd5b620012ea8583860162001161565b835260208401359150808211156200130157600080fd5b6200130f85838601620010e1565b602084015260408401359150808211156200132957600080fd5b620013378583860162001161565b604084015260608401359150808211156200135157600080fd5b6200135f85838601620010e1565b6060840152620013738560808601620010c9565b608084015260a08401359150808211156200138d57600080fd5b506200139c8482850162001235565b60a08301525060c082013560c082015260e082013560e082015261010080830135818301525092915050565b803560ff8116811462000e1557600080fd5b600060208284031215620013ec578081fd5b62000e128383620010c9565b6000806000606084860312156200140d578182fd5b83356001600160a01b038116811462001424578283fd5b95602085013595506040909401359392505050565b600080600080600080600060e0888a03121562001454578283fd5b87356001600160401b03808211156200146b578485fd5b620014798b838c01620010e1565b985060208a01359150808211156200148f578485fd5b6200149d8b838c0162001161565b975060408a0135915080821115620014b3578485fd5b620014c18b838c01620011c6565b965060608a0135915080821115620014d7578485fd5b620014e58b838c0162001161565b955060808a0135915080821115620014fb578485fd5b506200150a8a828b0162001161565b93505060a0880135915060c0880135905092959891949750929550565b60008060008060008060008060006101208a8c03121562001546578182fd5b89356001600160401b03808211156200155d578384fd5b6200156b8d838e01620010e1565b9a5060208c013591508082111562001581578384fd5b6200158f8d838e0162001161565b995060408c0135985060608c0135915080821115620015ac578384fd5b620015ba8d838e01620010e1565b975060808c0135915080821115620015d0578384fd5b620015de8d838e0162001161565b965060a08c0135955060c08c0135915080821115620015fb578384fd5b620016098d838e01620011c6565b945060e08c01359150808211156200161f578384fd5b6200162d8d838e0162001161565b93506101008c013591508082111562001644578283fd5b50620016538c828d0162001161565b9150509295985092959850929598565b6000806000806000806000806000806000806101808d8f03121562001686578586fd5b6001600160401b038d3511156200169b578586fd5b620016aa8e8e358f01620010e1565b9b506001600160401b0360208e01351115620016c4578586fd5b620016d68e60208f01358f0162001161565b9a5060408d013599506001600160401b0360608e01351115620016f7578586fd5b620017098e60608f01358f01620011c6565b98506001600160401b0360808e0135111562001723578586fd5b620017358e60808f01358f0162001161565b97506001600160401b0360a08e013511156200174f578586fd5b620017618e60a08f01358f0162001161565b96506001600160401b0360c08e013511156200177b578586fd5b6200178d8e60c08f01358f0162001161565b95506001600160401b0360e08e01351115620017a7578283fd5b620017b98e60e08f01358f01620010e1565b94506001600160401b036101008e01351115620017d4578283fd5b620017e78e6101008f01358f0162001161565b93506101208d01359250620018018e6101408f01620010c9565b91506101608d013590509295989b509295989b509295989b565b600080600080600080600060e0888a03121562001836578081fd5b87356001600160401b03808211156200184d578283fd5b6200185b8b838c01620010e1565b985060208a013591508082111562001871578283fd5b6200187f8b838c0162001161565b975060408a0135965060608a01359150808211156200189c578283fd5b620018aa8b838c01620011c6565b955060808a0135915080821115620018c0578283fd5b620018ce8b838c0162001161565b945060a08a0135915080821115620018e4578283fd5b620018f28b838c0162001161565b935060c08a013591508082111562001908578283fd5b50620019178a828b01620012a2565b91505092959891949750929550565b600080600080608085870312156200193c578182fd5b84356001600160401b038082111562001953578384fd5b6200196188838901620010e1565b9550602087013591508082111562001977578384fd5b50620019868782880162001161565b949794965050505060408301359260600135919050565b600060208284031215620019af578081fd5b8151801515811462000e12578182fd5b600060208284031215620019d1578081fd5b5035919050565b60008060008060808587031215620019ee578182fd5b84356001600160401b038082111562001a05578384fd5b62001a138883890162001235565b9550602087013591508082111562001a29578384fd5b62001a378883890162001235565b9450604087013591508082111562001a4d578384fd5b5062001a5c8782880162001235565b92505062001a6e8660608701620013c8565b905092959194509250565b6000815180845260208085019450808401835b8381101562001ab35781516001600160a01b03168752958201959082019060010162001a8c565b509495945050505050565b6000815180845260208085019450808401835b8381101562001ab35781518752958201959082019060010162001ad1565b6000815180845262001b0981602086016020860162002349565b601f01601f19169290920160200192915050565b6000825162001b3181846020870162002349565b9190910192915050565b7f19457468657265756d205369676e6564204d6573736167653a0a3332000000008152601c810191909152603c0190565b6001600160a01b039384168152919092166020820152604081019190915260600190565b6001600160a01b038516815260806020820181905260009062001bb69083018662001aef565b828103604084015262001bca818662001aef565b91505060ff8316606083015295945050505050565b6001600160a01b03929092168252602082015260400190565b90815260200190565b600086825285602083015284604083015260a0606083015262001c2860a083018562001a79565b828103608084015262001c3c818562001abe565b98975050505050505050565b60006101608d83528c602084015280604084015262001c6a8184018d62001abe565b838103606085015262001c7e818d62001a79565b915050828103608084015262001c95818b62001abe565b83810360a085015262001ca9818b62001a79565b6001600160a01b038a1660c086015284810360e0860152915062001cd09050818862001aef565b61010084019690965250506101208101929092526101409091015298975050505050505050565b60006101008a835289602084015280604084015262001d198184018a62001abe565b838103606085015262001d2d818a62001a79565b915050828103608084015262001d44818862001abe565b60a084019690965250506001600160a01b039290921660c083015260e09091015295945050505050565b60008582528460208301526080604083015262001d8f608083018562001aef565b905082606083015295945050505050565b93845260ff9290921660208401526040830152606082015260800190565b60006020825262000e12602083018462001aef565b600060a0825262001de860a083018862001aef565b828103602084015262001dfc818862001aef565b838103604085015262001e10818862001aef565b60ff969096166060850152505050608001529392505050565b6020808252601690820152754d616c666f726d6564206c697374206f66206665657360501b604082015260600190565b6020808252603f908201527f537570706c6965642063757272656e742076616c696461746f727320616e642060408201527f706f7765727320646f206e6f74206d6174636820636865636b706f696e742e00606082015260800190565b60208082526036908201527f4e6577206261746368206e6f6e6365206d7573742062652067726561746572206040820152757468616e207468652063757272656e74206e6f6e636560501b606082015260800190565b6020808252601f908201527f4d616c666f726d6564206261746368206f66207472616e73616374696f6e7300604082015260600190565b6020808252603d908201527f4e657720696e76616c69646174696f6e206e6f6e6365206d757374206265206760408201527f726561746572207468616e207468652063757272656e74206e6f6e6365000000606082015260800190565b6020808252601b908201527f536166654d6174683a206164646974696f6e206f766572666c6f770000000000604082015260600190565b602080825260099082015268151a5b5959081bdd5d60ba1b604082015260600190565b60208082526023908201527f56616c696461746f72207369676e617475726520646f6573206e6f74206d617460408201526231b41760e91b606082015260800190565b6020808252603b908201527f42617463682074696d656f7574206d757374206265206772656174657220746860408201527f616e207468652063757272656e7420626c6f636b206865696768740000000000606082015260800190565b60208082526021908201527f4d616c666f726d6564206c697374206f6620746f6b656e207472616e736665726040820152607360f81b606082015260800190565b6020808252601b908201527f4d616c666f726d6564206e65772076616c696461746f72207365740000000000604082015260600190565b6020808252603c908201527f5375626d69747465642076616c696461746f7220736574207369676e6174757260408201527f657320646f206e6f74206861766520656e6f75676820706f7765722e00000000606082015260800190565b60208082526037908201527f4e65772076616c736574206e6f6e6365206d757374206265206772656174657260408201527f207468616e207468652063757272656e74206e6f6e6365000000000000000000606082015260800190565b6020808252601d908201527f416464726573733a2063616c6c20746f206e6f6e2d636f6e7472616374000000604082015260600190565b6020808252602a908201527f5361666545524332303a204552433230206f7065726174696f6e20646964206e6040820152691bdd081cdd58d8d9595960b21b606082015260800190565b6020808252601f908201527f4d616c666f726d65642063757272656e742076616c696461746f722073657400604082015260600190565b6020808252601f908201527f5265656e7472616e637947756172643a207265656e7472616e742063616c6c00604082015260600190565b600084825260606020830152620022d6606083018562001a79565b8281036040840152620022ea818562001abe565b9695505050505050565b918252602082015260400190565b6040518181016001600160401b03811182821017156200232157600080fd5b604052919050565b60006001600160401b038211156200233f578081fd5b5060209081020190565b60005b83811015620023665781810151838201526020016200234c565b8381111562000e67575050600091015256fe60806040526000196006553480156200001757600080fd5b5060405162000e7c38038062000e7c833981810160405260808110156200003d57600080fd5b8151602083018051604051929492938301929190846401000000008211156200006557600080fd5b9083019060208201858111156200007b57600080fd5b82516401000000008111828201881017156200009657600080fd5b82525081516020918201929091019080838360005b83811015620000c5578181015183820152602001620000ab565b50505050905090810190601f168015620000f35780820380516001836020036101000a031916815260200191505b50604052602001805160405193929190846401000000008211156200011757600080fd5b9083019060208201858111156200012d57600080fd5b82516401000000008111828201881017156200014857600080fd5b82525081516020918201929091019080838360005b83811015620001775781810151838201526020016200015d565b50505050905090810190601f168015620001a55780820380516001836020036101000a031916815260200191505b5060405260209081015185519093508592508491620001ca91600391850190620003b7565b508051620001e0906004906020840190620003b7565b50506005805460ff191660121790555062000204816001600160e01b036200022216565b62000218846006546200023860201b60201c565b505050506200045c565b6005805460ff191660ff92909216919091179055565b6001600160a01b03821662000294576040805162461bcd60e51b815260206004820152601f60248201527f45524332303a206d696e7420746f20746865207a65726f206164647265737300604482015290519081900360640190fd5b620002ab600083836001600160e01b036200035016565b620002c7816002546200035560201b620008731790919060201c565b6002556001600160a01b03821660009081526020818152604090912054620002fa9183906200087362000355821b17901c565b6001600160a01b0383166000818152602081815260408083209490945583518581529351929391927fddf252ad1be2c89b69c2b068fc378daa952ba7f163c4a11628f55a4df523b3ef9281900390910190a35050565b505050565b600082820183811015620003b0576040805162461bcd60e51b815260206004820152601b60248201527f536166654d6174683a206164646974696f6e206f766572666c6f770000000000604482015290519081900360640190fd5b9392505050565b828054600181600116156101000203166002900490600052602060002090601f016020900481019282601f10620003fa57805160ff19168380011785556200042a565b828001600101855582156200042a579182015b828111156200042a5782518255916020019190600101906200040d565b50620004389291506200043c565b5090565b6200045991905b8082111562000438576000815560010162000443565b90565b610a10806200046c6000396000f3fe608060405234801561001057600080fd5b50600436106100a95760003560e01c8063395093511161007157806339509351146101d957806370a082311461020557806395d89b411461022b578063a457c2d714610233578063a9059cbb1461025f578063dd62ed3e1461028b576100a9565b806306fdde03146100ae578063095ea7b31461012b57806318160ddd1461016b57806323b872dd14610185578063313ce567146101bb575b600080fd5b6100b66102b9565b6040805160208082528351818301528351919283929083019185019080838360005b838110156100f05781810151838201526020016100d8565b50505050905090810190601f16801561011d5780820380516001836020036101000a031916815260200191505b509250505060405180910390f35b6101576004803603604081101561014157600080fd5b506001600160a01b03813516906020013561034f565b604080519115158252519081900360200190f35b61017361036c565b60408051918252519081900360200190f35b6101576004803603606081101561019b57600080fd5b506001600160a01b03813581169160208101359091169060400135610372565b6101c36103ff565b6040805160ff9092168252519081900360200190f35b610157600480360360408110156101ef57600080fd5b506001600160a01b038135169060200135610408565b6101736004803603602081101561021b57600080fd5b50356001600160a01b031661045c565b6100b6610477565b6101576004803603604081101561024957600080fd5b506001600160a01b0381351690602001356104d8565b6101576004803603604081101561027557600080fd5b506001600160a01b038135169060200135610546565b610173600480360360408110156102a157600080fd5b506001600160a01b038135811691602001351661055a565b60038054604080516020601f60026000196101006001881615020190951694909404938401819004810282018101909252828152606093909290918301828280156103455780601f1061031a57610100808354040283529160200191610345565b820191906000526020600020905b81548152906001019060200180831161032857829003601f168201915b5050505050905090565b600061036361035c610585565b8484610589565b50600192915050565b60025490565b600061037f848484610675565b6103f58461038b610585565b6103f085604051806060016040528060288152602001610945602891396001600160a01b038a166000908152600160205260408120906103c9610585565b6001600160a01b03168152602081019190915260400160002054919063ffffffff6107dc16565b610589565b5060019392505050565b60055460ff1690565b6000610363610415610585565b846103f08560016000610426610585565b6001600160a01b03908116825260208083019390935260409182016000908120918c16815292529020549063ffffffff61087316565b6001600160a01b031660009081526020819052604090205490565b60048054604080516020601f60026000196101006001881615020190951694909404938401819004810282018101909252828152606093909290918301828280156103455780601f1061031a57610100808354040283529160200191610345565b60006103636104e5610585565b846103f0856040518060600160405280602581526020016109b6602591396001600061050f610585565b6001600160a01b03908116825260208083019390935260409182016000908120918d1681529252902054919063ffffffff6107dc16565b6000610363610553610585565b8484610675565b6001600160a01b03918216600090815260016020908152604080832093909416825291909152205490565b3390565b6001600160a01b0383166105ce5760405162461bcd60e51b81526004018080602001828103825260248152602001806109926024913960400191505060405180910390fd5b6001600160a01b0382166106135760405162461bcd60e51b81526004018080602001828103825260228152602001806108fd6022913960400191505060405180910390fd5b6001600160a01b03808416600081815260016020908152604080832094871680845294825291829020859055815185815291517f8c5be1e5ebec7d5bd14f71427d1e84f3dd0314c0f7b2291e5b200ac8c7c3b9259281900390910190a3505050565b6001600160a01b0383166106ba5760405162461bcd60e51b815260040180806020018281038252602581526020018061096d6025913960400191505060405180910390fd5b6001600160a01b0382166106ff5760405162461bcd60e51b81526004018080602001828103825260238152602001806108da6023913960400191505060405180910390fd5b61070a8383836108d4565b61074d8160405180606001604052806026815260200161091f602691396001600160a01b038616600090815260208190526040902054919063ffffffff6107dc16565b6001600160a01b038085166000908152602081905260408082209390935590841681522054610782908263ffffffff61087316565b6001600160a01b038084166000818152602081815260409182902094909455805185815290519193928716927fddf252ad1be2c89b69c2b068fc378daa952ba7f163c4a11628f55a4df523b3ef92918290030190a3505050565b6000818484111561086b5760405162461bcd60e51b81526004018080602001828103825283818151815260200191508051906020019080838360005b83811015610830578181015183820152602001610818565b50505050905090810190601f16801561085d5780820380516001836020036101000a031916815260200191505b509250505060405180910390fd5b505050900390565b6000828201838110156108cd576040805162461bcd60e51b815260206004820152601b60248201527f536166654d6174683a206164646974696f6e206f766572666c6f770000000000604482015290519081900360640190fd5b9392505050565b50505056fe45524332303a207472616e7366657220746f20746865207a65726f206164647265737345524332303a20617070726f766520746f20746865207a65726f206164647265737345524332303a207472616e7366657220616d6f756e7420657863656564732062616c616e636545524332303a207472616e7366657220616d6f756e74206578636565647320616c6c6f77616e636545524332303a207472616e736665722066726f6d20746865207a65726f206164647265737345524332303a20617070726f76652066726f6d20746865207a65726f206164647265737345524332303a2064656372656173656420616c6c6f77616e63652062656c6f77207a65726fa2646970667358221220a76c0dd3ec4f5538377cb2c90b4daa4d49e6fcdcfc3d7d240acc64f5cc404e3964736f6c63430006060033a2646970667358221220e1088929bbf4a45e3f325522183a2c881da396922b4d92c90260ffa64e5fe7bc64736f6c63430006060033",
  "linkReferences": {},
  "deployedLinkReferences": {}
}